:020000000C945E
:1000020049000C9400000C9400000C9400000C9425
:1000120000000C9400000C9400000C9400000C945E
:1000220000000C9400000C9400000C9400000C944E
:1000320000000C9400000C9400000C9400000C943E
:1000420000000C9400000C9400000C9400000C942E
:100052000000463D25332E3266206B487A00463D2D
:1000620025332E306620487A00463D7E00002D4E14
:10007200414E000080C001002D4E414E00494E46C7
:1000820000000200640276000100680278000000AD
:10009200F894EE27ECBBF1E0FBBFEBBFE5BFF8E164
:1000A200F1BDE1BD8DE0A2E0BB27ED938A95E9F7B2
:1000B20080E098E0A0E6ED930197E9F7E4E8F0E04C
:1000C20085919591009761F0A591B5910590159054
:1000D200BF01F00105900D920197E1F7FB01F0CF0E
:1000E200EFE5EDBFE8E0EEBFC0E6D2E00C94B2006F
:1000F200A0970E945E06E0E0F0EC69E774E40E94DB
:10010200370909F008F410C0FE01FA93EA93E4E516
:10011200F0E0FA93EA930E945E06E0E0F0E06AE71C
:1001220074E40E94F20809C0FE01FA93EA93E0E641
:10013200F0E0FA93EA930E9467060E94E00984E0E5
:100142000E94400428960E9470060E94C404E2E0C5
:10015200EA93A0E00E94B404DE010E94F104A0969A
:100162000895C19AB998E0E0EFBDEEBDEDBDECBDDA
:10017200E2BDA0E10E942405E2E0EA93A0E00E9431
:10018200B404ABE6B0E00E940005E6E0EEBDA8EEE6
:10019200B3E00E9475060E94840618F00E94700661
:1001A20002C0A6DFF2CFE6E0EEBDAAEFB0E00E9409
:1001B20075060E948C060E948C060E94840611F02D
:1001C20008F003C00E947006E0CF0E94990618F062
:1001D2000E94700606C08CDFAAEFB0E00E94A4075E
:1001E200E2CFE6E0EEBDAEE3B0E00E94A40788EE07
:1001F20093E00197F1F7E0E0EEBD0E948C060E94C9
:100202008C060E948C060E948C060E94840611F0C5
:1002120008F003C00E947006B8CF0E94990611F040
:1002220008F003C00E947006BECF62DFA4EFB1E007
:100232000E94A407D6CFFFCFBA93AA931A930A9328
:10024200AA81BB8112960E94C209309729F1AA8124
:10025200BB8114960E94C2098F01309761F002306F
:10026200E0E01E0780F0F80131978F01AA81BB817F
:100272001496ED93FC93AA81BB8112960E94A1066B
:100282003197AC81A083AA81BB810E94C209FF235E
:1002920012F00E94A10606C0AA81BB81EFEFFFEF18
:1002A200ED93FC9319810881259608950E94A70673
:1002B200E0E8EA83EFE3EB830E94FD09EE85FF8528
:1002C200EF3FAFEFFA0749F4E885F985FA93EA932D
:1002D200A0E7B0E00E945705B4C0EF3FAFE7FA07CE
:1002E20049F4E885F985FA93EA93A1E7B0E00E9420
:1002F2005705A7C0AB85A73010F0E6E0EB871B855A
:10030200E12F1150E03019F00E94AE06F9CFEC85D2
:10031200FD856E857F850E94F70921F430E00E94F9
:10032200AE062DC03B850E94BD0609F008F40BC045
:100332000E94AE060E94BD0628F00E94C8060E94D6
:10034200CD06F8CF0DC00E94BD0640F40E94C8063B
:100352000E94D9060E94E0063150F5CF0E94AE06F7
:10036200EC85FD856E857F850E94E5060E94E0068C
:100372000E94BD0620F00E94C8060E94CD0610E031
:10038200EB85E11790F1AC81BD818E819F810E9446
:10039200EC060E94E506DF01CB010E94AE05EC836C
:1003A200FD836E837F830E94C8060E94F2080E942A
:1003B200E1070E2F0E94F3060E94FA060E94FF0632
:1003C200AC81BD818E819F810E94A4080E94C806D3
:1003D2000E9405070E94E006E12F1F5FE03081F6D0
:1003E2000E94F306EEE2EC93CBCF0E940A0731970C
:1003F200AA85A08330302CF43195A885B985EDE229
:1004020003C0A885B985EBE2EC930E940A070E941B
:100412000A073197BF01A32FEAE00E947C09E05D41
:10042200DB01EC930E940A073197BF01A32FEAE098
:100432000E94A609E05DDB01EC93A885B985E0E0A6
:10044200EC930E94040A60960895BA93AA93EF97D8
:1004520061970E94FB0910E0FE01E85AFF4F0190EC
:10046200F081E02DE887F987FE01EA5AFF4F0190FB
:10047200F081E02DEE83FF83AE81BF81E0E0F0E00A
:10048200ED93FC93DE01A45ABF4F0E94A10631975F
:10049200E4912E2FE03009F4E9C1E12FE03039F484
:1004A200253211F411E002C00E941007DEC1E130D2
:1004B200C1F4253219F40E941007D6C112E0E0E01F
:1004C200ED8B00E02D3211F401E0CFC12B3219F493
:1004D200EBE2ED8BCAC1203219F4E0E2ED8BC5C12B
:1004E20002C0E23039F450E013E0203311F4006826
:1004F200BCC102C0E33091F4203310F02A3308F07B
:1005020007C0AAE05A9F502DE22FE0535E0FADC103
:1005120040E02E3211F414E0A8C10FC0E43099F487
:10052200203310F02A3308F008C00062AAE04A9F84
:10053200402DE22FE0534E0F98C12C3619F4026081
:1005420015E093C103C0E53009F08FC1E22FE33615
:1005520059F40E9417070E941E070E941707A481E0
:10056200AA930E94250780C1E53411F0E53609F40B
:1005720003C0E63609F048C0FE017696EE87FF8793
:100582000E942B070E94C6090E9432070E94370769
:10059200AD85AA2332F0AD89AB3259F0A03281F099
:1005A20017C00E9439070E94AE070E943207EDE28F
:1005B200ED8B07FF05C0ED89EA930E94250708C06D
:1005C200EE85FF853196EE87FF873197AD89A0834F
:1005D20005FF46E0263651F40E9439070E94E009E1
:1005E2004A93AB89BC890E94C50509C00E9439079C
:1005F2000E94E0094A932A93AC89BD8957DEFE0125
:1006020076960E943E071EC0E33739F40E943707F0
:100612000E9446070E943E070EC0E037C1F40E94C6
:1006220037070E944607EE87FF87AE85BF850E9487
:1006320070051E2F08600F77403011F0411708F047
:1006420001C0142F40E0E0E0EC8B30E06DC0E436F6
:1006520011F0E93611F4046002C0E537A1F4EAE0D2
:10066200EC8B01FF08C0E0E0FAEC6AE97BE30E9450
:100672004B071AE022C0E0E1F7E260E070E00E947E
:100682004B0715E01AC0E83511F4086003C0E837DB
:1006920009F0EAC0E0E1EC8B01FF08C0E0E0F0E025
:1006A20060E070E10E944B0718E007C0E0E0F0E173
:1006B20060E070E00E944B0714E0403011F00F77C9
:1006C20001C041E001FF08C00E9437070E942B07CA
:1006D20014960E94C6090FC002FF07C00E94370786
:1006E2000E9446070E94690906C00E9437070E94BD
:1006F200460766277727EA87FB876C877D8702FF95
:1007020012C0AD85AA2342F40E9439070E945B09F8
:100712000E943207EDE2ED8BED89E03019F01F5FA8
:100722004F5F01C00B7F342F00FD14C0151710F46A
:10073200351708F00FC007FF08C002FF04C00B7F87
:100742002D89115001C020E301C020E20E94100750
:100752005150ECCF141790F4006102FF06C00E94C2
:10076200500709F0515011504150E0E3EA930E94C2
:100772002507503009F051504150ECCF312FEC8910
:10078200E030B9F43030A1F003FF06C0EE85FF85FA
:100792002591EE87FF8705C0AE85BF852D91AE8777
:1007A200BF870E941007503009F051503150EACFF4
:1007B20051C00E9462070E9481092E2F2A3030F018
:1007C20003FF02C0295C01C0295A01C0205D04FD5B
:1007D20021C0213360F4A889B9898A899B89A13013
:1007E200E0E0BE07E0E08E07E0E09E0709F40BC000
:1007F200431740F4531710F000FF01C010C020E26D
:1008020007FF08C020E3006102FF04C00E945007F6
:1008120009F051500E941007503009F051503150E8
:100822000E9462070E94B2090E943207EC89A889DD
:10083200B9898A899B89FF27662777270E948109C0
:100842000E944B07E889F9896A897B890E94F70926
:1008520009F0AFCF00FF08C0503031F05150E0E254
:10086200EA930E942507F8CF10E00CCEAE81BF813B
:100872000E94C2090E94020AEF966F960895FF92A3
:10088200F82E26970E94FD090E946B07309719F4F3
:10089200EFEFFFEF23C0DE0116960E9457098D018C
:1008A2000E946B07EE83FF83E0E0E887E987DE01C1
:1008B2001A960E9457090E94C209FA93EA931A9360
:1008C2000A93EDE1F1E0FA93EA93DE011A96BDDDB7
:1008D2009F01AE81BF81E0E0EC93F9010E94040A1E
:1008E2002A96FF900895FFE0FA95F1F70895AAB3CA
:1008F200AF70AABBD99AD898F6DFDA9AF4DFA9B317
:10090200DA98F1DFDA9AEFDFDA98A7FDF5CF0895EA
:10091200A07FAB2BABBBDA9A0E947404DA980E94D8
:1009220074040895AA93D998AAB3A76FAABBBBB3BC
:10093200BF70A881EDDFA881A295EADFD99A0C9455
:100942005505DA9A0E947404E9B3DA980E94740495
:10095200E07F08950E947404F4DFAE2FF2DFD9988D
:10096200E295EA2B0895AA930E947804E881F0E0C8
:10097200EC59FD4FE081A981AE0F0E94930459808A
:100982004880229608950E947804A2E00E9493046F
:100992000E947804ACE00E9493040E947804A1E0D3
:1009A2000E949304E0E04E2E5E2E0895AA93EF93E8
:1009B200FF93A8816894AA3019F0E894571430F094
:1009C2004394E0E0EA93A42DCEDF36F053948FDF18
:1009D200D89AA8810E949304FF91EF910C94550537
:1009E200BA93AA931A93A981BA81ED91A983BA8382
:1009F2001E2FE03019F0A12FD9DFF5CF10C0BA9326
:100A0200AA931A93E981FA813196E983FA8331979D
:100A1200E4911E2FE03019F0A12FC8DFF3CF188127
:100A220023960895AA27BB271197F1F70895AA9351
:100A3200D998AAB3A76FAABBBBB3BF70A8810E9403
:100A42008904D99A31C0AA93DA98D8987880E88133
:100A5200E058E0936602E881E054E09367020E9466
:100A620072070E9472070E947207DCDFA0E2DFDFDA
:100A7200D9DFA8E20E947707A4E00E947707A5E8E1
:100A82000E947707AAB3AF70AABBD99A0E94AB049F
:100A9200E53011F0E0E008C00E947804A6E00E9470
:100AA20093040E94C404E1E021960895BA93AA93A4
:100AB200E991F991A991B991CD0105900D9200208A
:100AC200E1F7FC010895BA93AA93A991B991EE278F
:100AD200FF276D91662311F03196FBCF0895BA93EB
:100AE200AA93AA27BB27E991F9910590002011F05A
:100AF2001196FBCFFD0108950E94E5097B816A8171
:100B0200F981E88177FB770F67FD7160972F9E5718
:100B120081F078F0983190F4AA27BB2788270894AF
:100B22008795B795A7959A95D1F7EA23FB23682372
:100B320005C0E8947727EE27FF2766276F7776951B
:100B420008F4606877F9A991B99189919991EA17A6
:100B5200FB076807790797FB08950E94E5090E9441
:100B6200D6090E947D050E94DB0919F40E94D10971
:100B720009C0E6F70E94D109A0E0B0E080E89FE357
:100B82000E944D0824960895E1D0E0E0EA83EFE365
:100B9200EB831A930A93EB85FC85EF3FAFEFFA07DD
:100BA20031F4A8D1AAE7B0E00E94570582C0EF3F16
:100BB200AFE7FA0731F49ED1ABE7B0E00E945705E8
:100BC20078C0AC85AA2352F4E985FA856B857C85C9
:100BD2000E94AE0794D198D1EDE2EC93A885A7309C
:100BE20010F0E6E0E8871885E12F1150E03021F09F
:100BF20092D1F1D095D1F8CF98D10E9454087FD1EB
:100C020010E0E0E0F0E060E87FE38AD18ED10E945C
:100C1200370968F080D1CCD083D11F5F173230F012
:100C220069D1AFE7B0E00E94570543C0EFCF103063
:100C320021F46AD1E0E3EC931CC0E12F1150E030C3
:100C4200C1F069D1C8D0C0D0DF01CB010E94AE058E
:100C520067D16BD10E94F2080E94E1070E2F54D196
:100C6200C8D059D1CBD00E94A40868D1CDD047D1E9
:100C7200E4CFE885E030C9F047D1EEE2EC93E885B5
:100C8200E150E887EF5F89F059D192D038D1E985F8
:100C9200FA856B857C850E94E1070E2F35D1A9D09C
:100CA2004DD1ACD0B1D02BD1EACFAE81BF81E0E043
:100CB200EC93198108812D960895A0916002B0915C
:100CC200610280916202909163020895E091600254
:100CD200F091610260916202709163020895E0E016
:100CE200F0E0FDBDECBD08950E94A407E0E0EEBD7A
:100CF200ECB5FDB5A0E6B2E0662777270E941A0898
:100D02000E94CC090895D9DFE0E0F0E46CE176E4DA
:100D12000E9437090895DADFD0DF0E945408E09379
:100D22006002F0936102609362027093630208951D
:100D3200C4DFE0E0FCE762E178E40E94370908954D
:100D4200ED91FD913196FE93EE930895BA93AA9395
:100D52002497E0E0E883E9830895AC81BD818E8128
:100D62009F81E0E0F0E060E271E40E94A408EC837D
:100D7200FD836E837F830895EC81FD816E817F8187
:100D8200AC85BD858E859F850E9437090895AC8507
:100D9200BD858E859F850895EDECFCEC6CEC7DE3C2
:100DA2000E94A408EC87FD876E877F873F5F0895C6
:100DB200E0E0F0E060E271E40E94A4080895EC87AC
:100DC200FD876E877F870895A0E0B0E080E09FE313
:100DD2000E9454080895EDECFCEC6CEC7DE30E945B
:100DE200A4080895A885B9851196A887B98711978F
:100DF2000895E02FE05DEC93E02F0895FF2766272A
:100E020077270E941A0808950E94EA090E944D0855
:100E12000895E885F9853196E887F98708952A9338
:100E2200AF81B885E985FA8509950895FE01E65AEC
:100E3200FF4F0190F081E02D08953497DE01A65A0C
:100E4200BF4FED93FC930895AF81B885E985FA858C
:100E520009950895DE01A65ABF4F0D90BC91A02DB1
:100E62000895EA87FB876C877D870895DFDFE5CFEA
:100E7200EA85FB856C857D850895EE87FF87AE85C3
:100E8200BF850E9464051E2F0895E4DF14960E9418
:100E9200C2090895E88BF98B6A8B7B8B08950B7FCF
:100EA200ED89EA93DE01A95ABF4F0D90BC91A02DA6
:100EB200FE01E75AFF4F0190F081E02D0995503075
:100EC2000895E889F9896A897B89AA85BB858C8519
:100ED2009D850895DE011C960E9457090E94C20951
:100EE20008950E941305A0E30C9418050E94930430
:100EF2000C941305EE81FF81FA93EA930895E98732
:100F0200FA876B877C870895AE81BF811196AE8385
:100F1200BF8311970895AA81BB818C819D81089519
:100F2200EA83FB836C837D830895EA81FB816C8174
:100F32007D81A985BA858B859C850895A985BA8509
:100F42008B859C850895109639F080ED97E0019786
:100F5200F1F7A8951197C9F708953097604070404E
:100F620009F070580895552342F4503811F4E0FF07
:100F720004C03196691F791F6BF050E8572711F4AE
:100F82005F93CFC05F3F31F0660F000C57956795B6
:100F9200752F08955F9300200AF0CFC0C8C050E8B3
:100FA200192E1522880F991F9527550F879550E8FE
:100FB200072E0522660F771F7527550F679508952F
:100FC200689401C0E8945F93F2DF703818F07F3FB5
:100FD20008F4A7C056E1571BAAF4519558300EF4F5
:100FE200593030F0EFEFFFEF6FEF7FE777F91AC07C
:100FF20077275523B9F0EE0FFF1F661F771F5A950B
:10100200D1F710C07727583028F0EF2FF62F672F2F
:101012005850F9CF552331F076956795F795E795B6
:101022005A95D1F700200AF445D15F91089568944A
:1010320001C0E894309760407040B1F0002426F07F
:10104200772312F4009436D1172E7EE1112032F06C
:101052007A95EE0FFF1F661F111CF9CFEF2FF62FA7
:10106200612D5F938ADF5F9108954F93AF01FD0178
:10107200DA01AB01BC01CA01402D012C142E4F91A3
:101082000895EA0FFB1F681F0895E095F09560959B
:10109200EF5FFF4F6F4F08955F9381DF903871F1DB
:1010A20050E8152604C05F937ADF903839F1703822
:1010B20021F1572F591B2BF112F4D7DFFACF5831F8
:1010C20018F0AA27BB278827583028F0AB2FB82F53
:1010D20088275850F9CF552329F08695B795A795BB
:1010E2005A95D9F7502D512572F0CBDF38F4679518
:1010F200F795E795739513F420C0B7DF3EDF5F9154
:101102000895D8F7FBCFEA1BFB0B680B51F010F4E4
:101112000094BBDF662392F3EE0FFF1F661F7A95E2
:10112200CBF7EE27FF27662777275F910895EFEF2A
:10113200FFEF6FE77FEF5F910895EFEFFFEF6FE74C
:101142007FE75F9108955F932ADF703851F39038FB
:1011520041F301240894791F23F41CF300203AF38D
:10116200ECCF0F921F932F933F934F931127222778
:101172009927689FA0018F9F302D410D591F6B9FAA
:10118200300D411D591F8E9F27D0BF9F25D06A9FCA
:1011920023D0BE9F1DD0AF9F1BD0AE9F110D291F24
:1011A200391F491F591FE32FF42F652F522F4F91DB
:1011B2003F912F911F910F9066232AF0550FEE1F3A
:1011C200FF1F661F02C073954BF2CDDE5F9108953B
:1011D200100D211D391F02C0200D311D491F591F3D
:1011E20008955F93DCDE703821F411200AF49FCF5A
:1011F200A4CF903809F495CF01240894970B1BF4DF
:10120200D4F30020F3CF792F1F932F933F934F9363
:1012120011241127222733274427552790E2AE179E
:10122200BF078607410730F0AE1BBF0B860B410B91
:10123200089401C08894551F221F331F111CAA1F36
:10124200BB1F881F441F9A9551F7F901612D4F91D9
:101252003F912F911F91662332F0550FEE1FFF1F12
:10126200661F7A9543F27FDE5F91089599239AF083
:10127200772342F0971748F029F4AE17BF07860785
:1012820020F031F0989488940895989408940895E1
:101292001894889408957723C2F7971798F3A9F7BB
:1012A200EA17FB07680788F399F3ECCF0024AF0D28
:1012B200B01D0895F09560957095E195FF4F6F4FC1
:1012C2007F4F0895FE2FFF0FFF0B6F2F7F2F089583
:1012D2006F2F660F660B762F0895002498E0AA0FF1
:1012E200001C0E1A10F40E0E01C0A1609A95B9F7F7
:1012F200EA2FA02D089539D0F0DF0EF4E19508957C
:101302003F934F935F93002411244427552730E2E3
:10131200AA0FBB1F881F991F001C111C441F551FB9
:101322000E1A1F0A460B570B28F40E0E1F1E461FDD
:10133200571F01C0A1603A9559F7FD01BC01D001C8
:10134200CA015F914F913F910895E894A7FF02C0AF
:10135200A1956894E7FDE195C0DFEA2F0EF4E195CF
:101362000895CEDFFD01BC010895E894E7FF02C0B5
:10137200E1956894A7FF04C0A19500F8039400FAD0
:101382000895ED91FC9111970895ED91FD916D9164
:101392007C9113970895ED93FD936D937C9308953B
:1013A200E881F9816A817B810895A881B9818A8166
:1013B2009B810895E883F9836A837B8308957A93F6
:1013C2006A93FA93EA9308959A938A93BA93AA93A3
:1013D2000895182E862F612D192E972F712D1B2EF1
:1013E200BF2FF12D1A2EAE2FE12D089530976040B8
:1013F200704008955A934A933A932A931A930A9300
:1014020008955D814C813B812A811981088108956B
:00000001FF
